:04000000B7EF02F064
:08000800046ED8CF05F0E0CF33
:1000100006F00001E9CF0CF0EACF07F0E1CF08F0DD
:10002000E2CF09F0D9CF0AF0DACF0BF0F3CF12F01C
:10003000F4CF13F0FACF14F0F5CF15F0F6CF16F099
:10004000F7CF17F000C00EF001C00FF002C010F0A3
:1000500003C011F0F2AA30EF00F0F2B457EF00F055
:100060000EC000F00FC001F010C002F011C003F08C
:100070000CC0E9FF07C0EAFF078E08C0E1FF09C016
:10008000E2FF0AC0D9FF0BC0DAFF12C0F3FF13C0B2
:10009000F4FF14C0FAFF15C0F5FF16C0F6FF17C035
:1000A000F7FF045006C0E0FF05C0D8FF1000D76A74
:1000B000640ED66E21061E2E16D0050E1E6E1A2A4E
:1000C0001A50640810E11A6A1B2A1B503C080BE105
:1000D0001B6A1C2A1C503C0806E11C6A1D2A1D5084
:1000E000180801E11D6AF29430EF00F0EA6A380E58
:1000F000E96EEF500DE0020E016E006A002EFED791
:10010000012EFBD7970E006E002EFED7EF2EF3D7F1
:10011000000CC150F00BC16E2F0E0F01386F000E96
:100120003C6F396F3A6F3B6FC050C00B0709C06E10
:10013000C08EC280620ED36ED350040E786E796E7C
:10014000080E896E8A6A8B6A8C6A8D6AAF0E926E0F
:10015000FC0E936E000E946E956E96909692969409
:100160009696010E7C6EF19EC40ED56ED76A640E13
:10017000D66EF28ACD6ACC6AC80E386E0001B6DF40
:10018000DFEF02F03550000808E2FF0A03E13450C7
:10019000900803E2FF0E366E39D0355203E1345039
:1001A000DC0803E27F0E366E31D0355203E1345065
:1001B0008C0803E23F0E366E29D0355203E13450ED
:1001C000500803E21F0E366E21D0355203E1345041
:1001D000280803E20F0E366E19D0355203E1345071
:1001E000140803E2070E366E11D0355203E1345085
:1001F0000C0803E2030E366E09D0355203E1345089
:10020000080803E2010E366E01D0366A36C001F0EE
:10021000000C396A3A6A3A5003081CE3030ED8808E
:100220003A543B6E37C000F03B50016E04E0D8906A
:100230000032012EFCD7000E00B0010E006E3A50C5
:10024000016E04E0D8900036012EFCD70050391220
:100250003A2AE1D7393A383A3A6A3A50030818E369
:1002600038C000F03A50016E04E0D8900032012E00
:10027000FCD7000E00B0010E006E3A50016E04E093
:10028000D8900036012EFCD7005039123A2AE5D713
:10029000FF0E391A39C08CFF396A373A3A6A3A5038
:1002A00003081CE3030ED8803A543B6E37C000F0BD
:1002B0003B50016E04E0D8900032012EFCD7000EB6
:1002C00000B0010E006E3A50016E04E0D890003686
:1002D000012EFCD7005039123A2AE1D7393A383A80
:1002E0003A6A3A50030818E338C000F03A50016EF9
:1002F00004E0D8900032012EFCD7000E00B0010EB1
:10030000006E3A50016E04E0D8900036012EFCD702
:10031000005039123A2AE5D7FF0E391A39C08BFF3F
:10032000000C8D908D928D94010E356E366A346A74
:10033000345007080CE335C037F036C038F069DFB9
:10034000640E386ED3DED8903536342AF1D7800E5D
:10035000366E346A345008080CE335C037F036C0C6
:1003600038F057DF640E386EC1DED8903632342A4A
:10037000F1D78D808D828D84020E376EFA0E386E25
:10038000B5DE372EFBD7346A3450020815E3FF0E72
:10039000376E386E3EDF8D908D928D94640E386E80
:1003A000A5DE376A386A35DF8D808D828D84640ED4
:1003B000386E9CDE342AE8D791EF03F08A90899852
:1003C000010E386E93DE100E366E365223E0010EAB
:1003D000365C376E8A90010E386E88DE010E006E34
:1003E0003750016E04E0D8900036012EFCD7005043
:1003F0003414006E036A0050031002E08A8201D0B8
:100400008A92010E386E72DE8A80010E386E6EDEC0
:100410003606DBD78A820A0E386E68DE8988000CC1
:1004200081B404D0356A040E346EC8DF81B604D0BE
:10043000356A020E346EC2DF81BA04D0356A080E06
:10044000346EBCDF81B804D0356A100E346EB6DF6E
:10045000356A346AB3DF000C346A3450020820E392
:100460008D908D928D94AA0E356E550E366E35C0D8
:1004700037F036C038F0CDDE640E386E37DE8D8052
:100480008D828D84550E356EAA0E366E35C037F0CE
:1004900036C038F0BEDE640E386E28DE342ADDD772
:1004A00093EF03F0346A3450010833E38D908D826A
:1004B0008D94010E356E366E346A3450070812E39F
:1004C00035C037F036C038F0A4DE320E386E0EDE9E
:1004D000D8903534010F356ED8903634010F366E12
:1004E000342AEBD78D808D928D84346A345007087E
:1004F0000EE335C037F036C038F08BDE320E386E82
:10050000F5DDD8903532D8903632342AEFD7342AF8
:10051000CAD795EF03F0346A3450010826E3010E80
:10052000356E346A345007081EE33450010B0BE17A
:1005300035C037F0386A6DDE8D908D828D844B0E1C
:10054000386ED4DD0AD0376A35C038F062DE4B0E23
:10055000386ECCDD8D808D828D94D8903534010F2E
:10056000356E342ADFD7342AD7D797EF03F0F86AED
:10057000D09E078EEA6AE96A600ED36ED350199056
:100580001A6A1B6A1C6A1D6A050E1E6E1F6A206AA3
:10059000216A236A226AC150F00BC16E000E0F015E
:1005A000386F000E3C6F000E396F000E3A6F000E70
:1005B0003B6F786A796A326A336A0001AAD5C00E45
:1005C000F212000E016EC250C30B0110C26E010E7A
:1005D000386E8CDDC282C2B2FED7C3CF33F0040EB8
:1005E000016EC250C30B0110C26E010E386E7EDD6B
:1005F000C282C2B2FED7C3CF32F0000E016EC2502B
:10060000C30B0110C26E010E386E70DDC282C2B221
:10061000FED7C3CF31F0040E016EC250C30B0110E0
:10062000C26E010E386E62DDC282C2B2FED7C3CF87
:1006300030F031503324006ED8900030336E30509B
:100640003224006ED8900030326E325033240008CD
:10065000D8B066D0356A31C034F094DD01C02FF0D7
:10066000356A30C034F08EDD01C02EF02FC037F077
:100670002EC038F0CEDD080E016EC250C30B011043
:10068000C26E010E386E32DDC282C2B2FED7C4CF56
:1006900003F0C3CF34F0C450356E010807E2FF0AFF
:1006A00003E13450300802E28D9001D08D800C0EB1
:1006B000016EC250C30B0110C26E010E386E16DD02
:1006C000C282C2B2FED7C4CF03F0C3CF34F0C4504D
:1006D000356E010807E2FF0A03E134503A0802E2EE
:1006E0008D9201D08D82100E016EC250C30B01108D
:1006F000C26E010E386EFADCC282C2B2FED7C4CF1F
:1007000003F0C3CF34F0C450356E010807E2FF0A8E
:1007100003E13450260802E28D9401D08D8407D085
:1007200000D67EDE99D67CDEBDD67ADEF4D678DEC3
:0407300064D7030087
:020000040030CA
:0E00000000E8183C003D81000FC00FE00F40EB
:00000001FF
;PIC18F45K22
;CRC=5026  CREATED="09-Nov-12 10:51"
