:04000000C3EF03F057
:08000800046ED8CF05F0E0CF33
:1000100006F00001E9CF0CF0EACF07F0E1CF08F0DD
:10002000E2CF09F0D9CF0AF0DACF0BF0F3CF12F01C
:10003000F4CF13F0FACF14F0F5CF15F0F6CF16F099
:10004000F7CF17F000C00EF001C00FF002C010F0A3
:1000500003C011F0F2AA30EF00F0F2B457EF00F055
:100060000EC000F00FC001F010C002F011C003F08C
:100070000CC0E9FF07C0EAFF078E08C0E1FF09C016
:10008000E2FF0AC0D9FF0BC0DAFF12C0F3FF13C0B2
:10009000F4FF14C0FAFF15C0F5FF16C0F6FF17C035
:1000A000F7FF045006C0E0FF05C0D8FF1000D76A74
:1000B000640ED66E21061E2E16D0050E1E6E1A2A4E
:1000C0001A50640810E11A6A1B2A1B503C080BE105
:1000D0001B6A1C2A1C503C0806E11C6A1D2A1D5084
:1000E000180801E11D6AF29430EF00F0EA6A390E57
:1000F000E96EEF500DE0020E016E006A002EFED791
:10010000012EFBD7970E006E002EFED7EF2EF3D7F1
:10011000000CC150F00BC16E2F0E0F01386F000E96
:100120003C6F396F3A6F3B6FC050C00B0709C06E10
:10013000C08EC280620ED36ED350040E786E796E7C
:10014000080E896E8A6A8B6A8C6A8D6AAF0E926E0F
:10015000FC0E936E000E946E956E96909692969409
:100160009696010E7C6EF19EC40ED56ED76A640E13
:10017000D66EF28ACD6ACC6AC80E396E0001B6DF3F
:10018000EBEF03F03550000808E2FF0A03E13450BA
:10019000900803E2FF0E366E39D0355203E1345039
:1001A000DC0803E27F0E366E31D0355203E1345065
:1001B0008C0803E23F0E366E29D0355203E13450ED
:1001C000500803E21F0E366E21D0355203E1345041
:1001D000280803E20F0E366E19D0355203E1345071
:1001E000140803E2070E366E11D0355203E1345085
:1001F0000C0803E2030E366E09D0355203E1345089
:10020000080803E2010E366E01D0366A36C001F0EE
:10021000000C3C6A3D6A3D5003081CE3030ED88085
:100220003D543E6E3AC000F03E50016E04E0D8905E
:100230000032012EFCD7000E00B0010E006E3D50C2
:10024000016E04E0D8900036012EFCD700503C121D
:100250003D2AE1D73C3A3B3A3D6A3D50030818E35A
:100260003BC000F03D50016E04E0D8900032012EFA
:10027000FCD7000E00B0010E006E3D50016E04E090
:10028000D8900036012EFCD700503C123D2AE5D70D
:10029000FF0E3C1A3CC08CFF3C6A3A3A3D6A3D5026
:1002A00003081CE3030ED8803D543E6E3AC000F0B4
:1002B0003E50016E04E0D8900032012EFCD7000EB3
:1002C00000B0010E006E3D50016E04E0D890003683
:1002D000012EFCD700503C123D2AE1D73C3A3B3A74
:1002E0003D6A3D50030818E33BC000F03D50016EED
:1002F00004E0D8900032012EFCD7000E00B0010EB1
:10030000006E3D50016E04E0D8900036012EFCD7FF
:1003100000503C123D2AE5D7FF0E3C1A3CC08BFF33
:10032000000C346A343C01D00AD034C03AF034C0F6
:100330003BF06FDF190E396ED9DE342AF3D734C0A3
:100340003AF034C03BF065DF8D908D928D94020EB3
:10035000356EC80E396ECADE352EFBD78D808D8284
:100360008D849EEF04F08A908998010E396EBEDE6E
:10037000100E366E365223E0010E365C376E8A90D0
:10038000010E396EB3DE010E006E3750016E04E0CF
:10039000D8900036012EFCD700503414006E036A4A
:1003A0000050031002E08A8201D08A92010E396E59
:1003B0009DDE8A80010E396E99DE3606DBD78A8291
:1003C0000A0E396E93DE8988000C81B404D0356A38
:1003D000040E346EC8DF81B604D0356A020E346E66
:1003E000C2DF81BA04D0356A080E346EBCDF81B832
:1003F00004D0356A100E346EB6DF356A346AB3DF66
:10040000000C3A50016A395C03E239C000F00CD0AC
:10041000006A080E3B6E393600363A50005CD8B0A0
:10042000006E01363B2EF7D7000C800E356E010EA4
:10043000366E020E376E8D808D828D84346A345014
:1004400003081EE336503524386E36503524396E95
:1004500038C03AF03B6EDDDE35C039F037C03AF0D7
:10046000D0DF01503526D8903634010F366ED89043
:100470003734020F376EFA0E396E38DE342ADFD782
:10048000346A345002080EE38D908D928D94960E4E
:10049000396E2CDE8D808D828D84960E396E26DE2F
:1004A000342AEFD7346A3450030813E3D890353632
:1004B000D890363236503524386E36503524396E61
:1004C00038C03AF03B6EA5DEFA0E396E0FDE342AE4
:1004D000EAD7A0EF04F0346A3450010833E38D907A
:1004E0008D828D94010E356E366E346A3450070855
:1004F00012E335C03AF036C03BF08BDEC80E396EE1
:10050000F5DDD8903534010F356ED8903634010FB3
:10051000366E342AEBD78D808D928D84346A3450B8
:1005200007080EE335C03AF036C03BF072DEC80E65
:10053000396EDCDDD8903532D8903632342AEFD798
:10054000342ACAD7A2EF04F0356A3550010826E3F1
:10055000010E366E346A345007081EE33450010B26
:100560000BE136C03AF03B6A54DE8D908D828D846B
:10057000C80E396EBBDD0AD03A6A36C03BF049DEA0
:100580008D808D828D94C80E396EB0DDD890363452
:10059000010F366E342ADFD7352AD7D7A4EF04F0FF
:1005A000346A3450020820E38D908D928D94AA0E07
:1005B000356E550E366E35C03AF036C03BF029DE4A
:1005C000C80E396E93DD8D808D828D84550E356E0B
:1005D000AA0E366E35C03AF036C03BF01ADEC80EB1
:1005E000396E84DD342ADDD7A6EF04F0356A355044
:1005F00001082AE3C00E366E030E376E346A34509B
:10060000050820E33450010B0CE136C03AF037C046
:100610003BF0FFDD8D908D928D94C80E396E66DDB6
:100620000BD037C03AF036C03BF0F3DD8D808D82C1
:100630008D84C80E396E5ADDD8903632D890373650
:10064000342ADDD7352AD3D7A8EF04F0010E366E51
:10065000800E376E020E386E8D808D928D84356AD5
:100660003550010841E3346A3450070821E335521C
:1006700006E136C03AF037C03BF0CBDD05D037C0DD
:100680003AF036C03BF0C5DD37C039F038C03AF03B
:10069000B8DE01503726D8903634010F366ED89028
:1006A0003834020F386EFA0E396E20DD342ADCD76A
:1006B000346A3450070816E3355206E136C03AF082
:1006C00037C03BF0A6DD05D037C03AF036C03BF06E
:1006D000A0DDD8903732D8903636FA0E396E06DD66
:1006E000342AE7D7352ABCD7AAEF04F08D908D9233
:1006F0008D94010E356E366A346A345007080CE367
:1007000035C03AF036C03BF084DD640E396EEEDC65
:10071000D8903536342AF1D7800E366E346A34508C
:1007200008080CE335C03AF036C03BF072DD640EC9
:10073000396EDCDCD8903632342AF1D78D808D8248
:100740008D84020E376EFA0E396ED0DC372EFBD751
:10075000346A3450020815E3FF0E3A6E3B6E59DDE1
:100760008D908D928D94640E396EC0DC3A6A3B6A2E
:1007700050DD8D808D828D84640E396EB7DC342A15
:10078000E8D7ACEF04F0F86AD09E078EEA6AE96A0F
:10079000600ED36ED35019901A6A1B6A1C6A1D6AC8
:1007A000050E1E6E1F6A206A216A236A226AC150E2
:1007B000F00BC16E000E0F01386F000E3C6F000E83
:1007C000396F000E3A6F000E3B6F786A796A326AB1
:1007D000336A00019ED4C00EF212000E016EC250A8
:1007E000C30B0110C26E010E396E80DCC282C2B230
:1007F000FED7C3CF33F0040E016EC250C30B0110FD
:10080000C26E010E396E72DCC282C2B2FED7C3CF95
:1008100032F0000E016EC250C30B0110C26E010E09
:10082000396E64DCC282C2B2FED7C3CF31F0040E8F
:10083000016EC250C30B0110C26E010E396E56DC40
:10084000C282C2B2FED7C3CF30F031503324006E23
:10085000D8900030336E30503224006ED890003083
:10086000326E325033240208D8B067D0356A31C0B6
:1008700034F088DC01C02FF0356A30C034F082DCFF
:1008800001C02EF02FC03AF02EC03BF0C2DC080EA3
:10089000016EC250C30B0110C26E010E396E26DC10
:1008A000C282C2B2FED7C4CF03F0C3CF34F0C4506B
:1008B000356E010807E2FF0A03E13450300802E216
:1008C0008D9001D08D800C0E016EC250C30B0110B3
:1008D000C26E010E396E0ADCC282C2B2FED7C4CF2C
:1008E00003F0C3CF34F0C450356E010807E2FF0AAD
:1008F00003E134503A0802E28D9201D08D82100E4D
:10090000016EC250C30B0110C26E010E396E76EC3F
:1009100000F0C282C2B2FED7C4CF03F0C3CF34F01E
:10092000C450356E010807E2FF0A03E1345026087F
:1009300002E28D9401D08D840FD0F3D446DD75D5BD
:1009400044DDC9D542DD00D640DD2AD63EDD4ED697
:0E0950003CDD7CD63ADDCAD638DD5BD703002D
:020000040030CA
:0E00000000E8183C003D81000FC00FE00F40EB
:00000001FF
;PIC18F45K22
;CRC=84D1  CREATED="16-Nov-12 10:44"
