:0400000052EF03F0C8
:08000800046ED8CF05F0E0CF33
:1000100006F00001E9CF0CF0EACF07F0E1CF08F0DD
:10002000E2CF09F0D9CF0AF0DACF0BF0F3CF12F01C
:10003000F4CF13F0FACF14F0F5CF15F0F6CF16F099
:10004000F7CF17F000C00EF001C00FF002C010F0A3
:1000500003C011F0F2AA30EF00F0F2B457EF00F055
:100060000EC000F00FC001F010C002F011C003F08C
:100070000CC0E9FF07C0EAFF078E08C0E1FF09C016
:10008000E2FF0AC0D9FF0BC0DAFF12C0F3FF13C0B2
:10009000F4FF14C0FAFF15C0F5FF16C0F6FF17C035
:1000A000F7FF045006C0E0FF05C0D8FF1000D76A74
:1000B000640ED66E21061E2E16D0050E1E6E1A2A4E
:1000C0001A50640810E11A6A1B2A1B503C080BE105
:1000D0001B6A1C2A1C503C0806E11C6A1D2A1D5084
:1000E000180801E11D6AF29430EF00F0EA6A380E58
:1000F000E96EEF500DE0020E016E006A002EFED791
:10010000012EFBD7970E006E002EFED7EF2EF3D7F1
:10011000000CC150F00BC16E2F0E0F01386F000E96
:100120003C6F396F3A6F3B6FC050C00B0709C06E10
:10013000C08EC280620ED36ED350040E786E796E7C
:10014000080E896E8A6A8B6A8C6A8D6AAF0E926E0F
:10015000FC0E936E000E946E956E96909692969409
:100160009696010E7C6EF19EC40ED56ED76A640E13
:10017000D66EF28ACD6ACC6AC80E386E0001B6DF40
:100180007AEF03F03550000808E2FF0A03E134502B
:10019000900803E2FF0E366E39D0355203E1345039
:1001A000DC0803E27F0E366E31D0355203E1345065
:1001B0008C0803E23F0E366E29D0355203E13450ED
:1001C000500803E21F0E366E21D0355203E1345041
:1001D000280803E20F0E366E19D0355203E1345071
:1001E000140803E2070E366E11D0355203E1345085
:1001F0000C0803E2030E366E09D0355203E1345089
:10020000080803E2010E366E01D0366A36C001F0EE
:10021000000C3C6A3D6A3D5003081CE3030ED88085
:100220003D543E6E3AC000F03E50016E04E0D8905E
:100230000032012EFCD7000E00B0010E006E3D50C2
:10024000016E04E0D8900036012EFCD700503C121D
:100250003D2AE1D73C3A3B3A3D6A3D50030818E35A
:100260003BC000F03D50016E04E0D8900032012EFA
:10027000FCD7000E00B0010E006E3D50016E04E090
:10028000D8900036012EFCD700503C123D2AE5D70D
:10029000FF0E3C1A3CC08CFF3C6A3A3A3D6A3D5026
:1002A00003081CE3030ED8803D543E6E3AC000F0B4
:1002B0003E50016E04E0D8900032012EFCD7000EB3
:1002C00000B0010E006E3D50016E04E0D890003683
:1002D000012EFCD700503C123D2AE1D73C3A3B3A74
:1002E0003D6A3D50030818E33BC000F03D50016EED
:1002F00004E0D8900032012EFCD7000E00B0010EB1
:10030000006E3D50016E04E0D8900036012EFCD7FF
:1003100000503C123D2AE5D7FF0E3C1A3CC08BFF33
:10032000000C8D908D928D94010E356E366A346A74
:10033000345007080CE335C03AF036C03BF069DFB3
:10034000640E386ED3DED8903536342AF1D7800E5D
:10035000366E346A345008080CE335C03AF036C0C3
:100360003BF057DF640E386EC1DED8903632342A47
:10037000F1D78D808D828D84020E376EFA0E386E25
:10038000B5DE372EFBD7346A3450020815E3FF0E72
:100390003A6E3B6E3EDF8D908D928D94640E386E7A
:1003A000A5DE3A6A3B6A35DF8D808D828D84640ECE
:1003B000386E9CDE342AE8D72CEF04F08A908998B6
:1003C000010E386E93DE100E366E365223E0010EAB
:1003D000365C376E8A90010E386E88DE010E006E34
:1003E0003750016E04E0D8900036012EFCD7005043
:1003F0003414006E036A0050031002E08A8201D0B8
:100400008A92010E386E72DE8A80010E386E6EDEC0
:100410003606DBD78A820A0E386E68DE8988000CC1
:1004200081B404D0356A040E346EC8DF81B604D0BE
:10043000356A020E346EC2DF81BA04D0356A080E06
:10044000346EBCDF81B804D0356A100E346EB6DF6E
:10045000356A346AB3DF000C346A3450020820E392
:100460008D908D928D94AA0E356E550E366E35C0D8
:100470003AF036C03BF0CDDEC80E386E37DE8D80E8
:100480008D828D84550E356EAA0E366E35C03AF0CB
:1004900036C03BF0BEDEC80E386E28DE342ADDD70B
:1004A0002EEF04F0346A3450010833E38D908D82CE
:1004B0008D94010E356E366E346A3450070812E39F
:1004C00035C03AF036C03BF0A4DEC80E386E0EDE02
:1004D000D8903534010F356ED8903634010F366E12
:1004E000342AEBD78D808D928D84346A345007087E
:1004F0000EE335C03AF036C03BF08BDEC80E386EE6
:10050000F5DDD8903532D8903632342AEFD7342AF8
:10051000CAD730EF04F0356A3550010826E3010EE2
:10052000366E346A345007081EE33450010B0BE179
:1005300036C03AF03B6A6DDE8D908D828D84C80E98
:10054000386ED4DD0AD03A6A36C03BF062DE8D8068
:100550008D828D94C80E386EC9DDD8903634010F67
:10056000366E342ADFD7352AD7D732EF04F0395028
:10057000016A385C03E238C000F00CD0006A080E53
:100580003A6E383600363950005CD8B0006E01360D
:100590003A2EF7D7E8EF02F0800E356E010E366E78
:1005A000020E376E8D808D828D84346A345003083C
:1005B0001EE336503524386E36503524396E38C037
:1005C0003AF03B6E26DE35C038F037C039F0CFD771
:1005D00001503526D8903634010F366ED890373416
:1005E000020F376EFA0E386E81DD342ADFD7346A97
:1005F000345002080EE38D908D928D94960E386ED5
:1006000075DD8D808D828D84960E386E6FDD342A77
:10061000EFD7346A3450030813E336503524386E6C
:1006200036503524396E38C03AF03B6EF2DDD89042
:100630003536D8903632FA0E386E58DD342AEAD77D
:1006400034EF04F0356A355001082AE3C00E366EE7
:10065000030E376E346A3450050820E33450010B22
:100660000CE136C03AF037C03BF0D3DD8D908D926F
:100670008D94C80E386E3ADD0BD037C03AF036C0D4
:100680003BF0C7DD8D808D828D84C80E386E2EDDE7
:10069000D8903632D8903736342ADDD7352AD3D79A
:1006A00036EF04F0F86AD09E078EEA6AE96A600EB7
:1006B000D36ED35019901A6A1B6A1C6A1D6A050E04
:1006C0001E6E1F6A206A216A236A226AC150F00BDB
:1006D000C16E000E0F01386F000E3C6F000E396FB7
:1006E000000E3A6F000E3B6F786A796A326A336A9D
:1006F00000010FD5C00EF212000E016EC250C30BE6
:100700000110C26E010E386EF1DCC282C2B2FED799
:10071000C3CF33F0040E016EC250C30B0110C26E82
:10072000010E386EE3DCC282C2B2FED7C3CF32F014
:10073000000E016EC250C30B0110C26E010E386E66
:10074000D5DCC282C2B2FED7C3CF31F0040E016E37
:10075000C250C30B0110C26E010E386EC7DCC282DC
:10076000C2B2FED7C3CF30F031503324006ED890E0
:100770000030336E30503224006ED8900030326E2C
:10078000325033240208D8B066D0356A31C034F014
:10079000F9DC01C02FF0356A30C034F0F3DC01C061
:1007A0002EF02FC03AF02EC03BF033DD080E016E64
:1007B000C250C30B0110C26E010E386E97DCC282AC
:1007C000C2B2FED7C4CF03F0C3CF34F0C450356EED
:1007D000010807E2FF0A03E13450300802E28D907D
:1007E00001D08D800C0E016EC250C30B0110C26E81
:1007F000010E386E7BDCC282C2B2FED7C4CF03F0DA
:10080000C3CF34F0C450356E010807E2FF0A03E19C
:1008100034503A0802E28D9201D08D82100E016EA2
:10082000C250C30B0110C26E010E386E5FDCC28273
:10083000C2B2FED7C4CF03F0C3CF34F0C450356E7C
:10084000010807E2FF0A03E13450260802E28D9412
:1008500001D08D840BD065D5E3DDFED5E1DD22D658
:10086000DFDD59D6DDDD98D6DBDDECD6D9DD60D70E
:02087000030083
:020000040030CA
:0E00000000E8183C003D81000FC00FE00F40EB
:00000001FF
;PIC18F45K22
;CRC=CC52  CREATED="16-Nov-12 08:52"
