:0400000049EF03F0D1
:08000800046ED8CF05F0E0CF33
:1000100006F00001E9CF0CF0EACF07F0E1CF08F0DD
:10002000E2CF09F0D9CF0AF0DACF0BF0F3CF12F01C
:10003000F4CF13F0FACF14F0F5CF15F0F6CF16F099
:10004000F7CF17F000C00EF001C00FF002C010F0A3
:1000500003C011F0F2AA30EF00F0F2B4DDEF00F0CF
:100060000EC000F00FC001F010C002F011C003F08C
:100070000CC0E9FF07C0EAFF078E08C0E1FF09C016
:10008000E2FF0AC0D9FF0BC0DAFF12C0F3FF13C0B2
:10009000F4FF14C0FAFF15C0F5FF16C0F6FF17C035
:1000A000F7FF045006C0E0FF05C0D8FF1000EA6A61
:1000B000490EE96EEF500DE0020E016E006A002E4F
:1000C000FED7012EFBD7970E006E002EFED7EF2E27
:1000D000F3D7000C8A908998010E496EE8DF100E64
:1000E000476E475223E0010E475C486E8A90010E2E
:1000F000496EDDDF010E006E4850016E04E0D890BD
:100100000036012EFCD700504514006E036A0050E3
:10011000031002E08A8201D08A92010E496EC7DF85
:100120008A80010E496EC3DF4706DBD78A820A0E3A
:10013000496EBDDF8988000C010E236E81B40AD0A0
:1001400081B608D0466A010E456EC4DF466A456A2C
:10015000C1DF12D081B407D0466A040E456EBADF03
:10016000466A456AB7DF81B607D0466A020E456E19
:10017000B1DF466A456AAEDF81BA0AD081B808D0DD
:10018000466A400E456EA6DF466A456AA3DF12D076
:1001900081BA07D0466A080E456E9CDF466A456AFA
:1001A00099DF81B807D0466A100E456E93DF466A24
:1001B000456A90DF236AFCEF00F0D76A640ED66EC2
:1001C00022061F2E19D0050E1F6E1B2A1B50640815
:1001D00010E11B6A1C2A1C503C080BE11C6A1D2AFA
:1001E0001D503C0806E11D6A1E2A1E50180801E138
:1001F0001E6A235201E1A0D7F29430EF00F0C15003
:10020000F00BC16E2F0E0F01386F000E3C6F396F6F
:100210003A6F3B6FC050C00B0709C06EC08EC280E2
:10022000620ED36ED350040E786E796E080E896E0E
:100230008A6A8B6A8C6A8D6AAF0E926EFC0E936E20
:10024000000E946E956E9690969296949696010EE8
:100250007C6EF19EC40ED56ED76A640ED66EF28A9D
:10026000CD6ACC6A196AF2BE198EF29EC80E496E2A
:1002700000011DDF19BEF28E75EF03F03A50000841
:1002800008E2FF0A03E13950900803E2FF0E3B6EDB
:1002900039D03A5203E13950DC0803E27F0E3B6E5D
:1002A00031D03A5203E139508C0803E23F0E3B6EE5
:1002B00029D03A5203E13950500803E21F0E3B6E39
:1002C00021D03A5203E13950280803E20F0E3B6E69
:1002D00019D03A5203E13950140803E2070E3B6E7D
:1002E00011D03A5203E139500C0803E2030E3B6E81
:1002F00009D03A5203E13950080803E2010E3B6E7F
:1003000001D03B6A3BC001F0000C426A436A435093
:1003100003081CE3030ED8804354446E40C000F031
:100320004450016E04E0D8900032012EFCD7000E3C
:1003300000B0010E006E4350016E04E0D89000360C
:10034000012EFCD700504212432AE1D7423A413AEB
:10035000436A4350030818E341C000F04350016E64
:1003600004E0D8900032012EFCD7000E00B0010E40
:10037000006E4350016E04E0D8900036012EFCD789
:1003800000504212432AE5D7FF0E421A42C08CFFAA
:10039000426A403A436A435003081CE3030ED88084
:1003A0004354446E40C000F04450016E04E0D890C5
:1003B0000032012EFCD7000E00B0010E006E43503B
:1003C000016E04E0D8900036012EFCD70050421296
:1003D000432AE1D7423A413A436A4350030818E3BB
:1003E00041C000F04350016E04E0D8900032012E6D
:1003F000FCD7000E00B0010E006E4350016E04E009
:10040000D8900036012EFCD700504212432AE5D77F
:10041000FF0E421A42C08BFF000C4050016A3F5C45
:1004200003E23FC000F00CD0006A080E416E3F3678
:1004300000364050005CD8B0006E0136412EF7D730
:10044000000C800E3B6E010E3C6E020E3D6E8D80E8
:100450008D828D843A6A3A50030824E33C503B2451
:100460003E6E3C503B243F6E3EC040F0416E4DDF3F
:100470003BC03FF03DC040F0D0DF01503B26D8905C
:100480003C34010F3C6ED8903D34020F3D6E196A2A
:10049000F2BE198EF29EFA0E496E09DE19BEF28E78
:1004A0003A2AD9D73A6A3A5002081AE38D908D92C7
:1004B0008D94196AF2BE198EF29E960E496EF7DD82
:1004C00019BEF28E8D808D828D84196AF2BE198ECE
:1004D000F29E960E496EEBDD19BEF28E3A2AE3D7F4
:1004E0003A6A3A50030819E3D8903B36D8903C3228
:1004F0003C503B243E6E3C503B243F6E3EC040F09F
:10050000416E03DF196AF2BE198EF29EFA0E496E31
:10051000CEDD19BEF28E3A2AE4D747EF03F03A6AED
:100520003A5001083FE38D908D828D94010E3B6E11
:100530003C6E3A6A3A50070818E33BC040F03CC0B2
:1005400041F0E3DE196AF2BE198EF29EC80E496EC2
:10055000AEDD19BEF28ED8903B34010F3B6ED890C1
:100560003C34010F3C6E3A2AE5D78D808D928D8404
:100570003A6A3A50070814E33BC040F03CC041F0EF
:10058000C4DE196AF2BE198EF29EC80E496E8FDD66
:1005900019BEF28ED8903B32D8903C323A2AE9D735
:1005A0003A2ABED747EF03F0010E3C6E800E3D6E37
:1005B000020E3E6E8D808D928D843B6A3B50010809
:1005C00056E3010E3C6E800E3D6E020E3E6E3A6AA0
:1005D0003A50070827E33B5206E13CC040F03DC0DB
:1005E00041F093DE05D03DC040F03CC041F08DDECF
:1005F0003DC03FF03EC040F010DF01503D26D89096
:100600003C34010F3C6ED8903E34020F3E6E196AA6
:10061000F2BE198EF29EFA0E496E49DD19BEF28EB7
:100620003A2AD6D7FF0E3C6E3D6E3A6A3A5007081A
:100630001CE33B5206E13CC040F03DC041F065DEAA
:1006400005D03DC040F03CC041F05FDED8903D3267
:10065000D8903C36196AF2BE198EF29EFA0E496E97
:1006600026DD19BEF28E3A2AE1D73B2AA7D747EFFB
:1006700003F03950000A05E0010A05E0030A05E02D
:1006800006D0DFD604D04BD702D08ED700D053EFA0
:1006900004F0F86AD09E078EEA6AE96A600ED36EAB
:1006A000D3501A901B6A1C6A1D6A1E6A050E1F6EC3
:1006B000206A216A226A236A256A246A306A316ABA
:1006C000C150F00BC16E000E0F01386F000E3C6F71
:1006D000000E396F000E3A6F000E3B6F786A796A30
:1006E000366A376A386A00018AD5C00EF212000EE7
:1006F000016EC250C30B0110C26E196AF2BE198E90
:10070000F29E010E496ED3DC19BEF28EC282C2B2D5
:10071000FED7C3CF37F0040E016EC250C30B0110D9
:10072000C26E196AF2BE198EF29E010E496EBFDCCE
:1007300019BEF28EC282C2B2FED7C3CF36F0000E0F
:10074000016EC250C30B0110C26E196AF2BE198E3F
:10075000F29E010E496EABDC19BEF28EC282C2B2AD
:10076000FED7C3CF35F0040E016EC250C30B01108B
:10077000C26E196AF2BE198EF29E010E496E97DCA6
:1007800019BEF28EC282C2B2FED7C3CF34F035504A
:100790003724006ED8900030376E34503624006E07
:1007A000D8900030366E365037240208D8B078D052
:1007B0003A6A35C039F062DD01C033F03A6A34C0BC
:1007C00039F05CDD01C032F033C040F032C041F09E
:1007D0009CDD080E016EC250C30B0110C26E196A77
:1007E000F2BE198EF29E010E496E61DC19BEF28EC8
:1007F000C282C2B2FED7C4CF03F0C3CF39F0C45017
:100800003A6E010807E2FF0A03E13950300802E2BC
:100810008D9001D08D800C0E016EC250C30B011063
:10082000C26E196AF2BE198EF29E010E496E3FDC4D
:1008300019BEF28EC282C2B2FED7C4CF03F0C3CFBC
:1008400039F0C4503A6E010807E2FF0A03E139505B
:100850003A0802E28D9201D08D82100E016EC250D4
:10086000C30B0110C26E196AF2BE198EF29E010E00
:10087000496E1DDC19BEF28EC282C2B2FED7C4CF51
:1008800003F0C3CF39F0C4503A6E010807E2FF0A03
:1008900003E13950260802E28D9401D08D8408D0FE
:1008A00038C039F0E6D6382A3850030801E1386AF2
:0408B00046D7030024
:020000040030CA
:0E00000000E8183C003D81000FC00FE00F40EB
:00000001FF
;PIC18F45K22
;CRC=0570  CREATED="12-Apr-13 11:08"
