:0400000098EF04F081
:08000800046ED8CF05F0E0CF33
:1000100006F00001E9CF0CF0EACF07F0E1CF08F0DD
:10002000E2CF09F0D9CF0AF0DACF0BF0F3CF12F01C
:10003000F4CF13F0FACF14F0F5CF15F0F6CF16F099
:10004000F7CF17F000C00EF001C00FF002C010F0A3
:1000500003C011F0F2AA30EF00F0F2B4D1EF00F0DB
:100060000EC000F00FC001F010C002F011C003F08C
:100070000CC0E9FF07C0EAFF078E08C0E1FF09C016
:10008000E2FF0AC0D9FF0BC0DAFF12C0F3FF13C0B2
:10009000F4FF14C0FAFF15C0F5FF16C0F6FF17C035
:1000A000F7FF045006C0E0FF05C0D8FF1000EA6A61
:1000B000470EE96EEF500DE0020E016E006A002E51
:1000C000FED7012EFBD7970E006E002EFED7EF2E27
:1000D000F3D712008A908998010E476EE8DF100E60
:1000E000456E455223E0010E455C466E8A90010E36
:1000F000476EDDDF010E006E4650016E04E0D890C1
:100100000036012EFCD700504314006E036A0050E5
:10011000031002E08A8201D08A92010E476EC7DF87
:100120008A80010E476EC3DF4506DBD78A820A0E3E
:10013000476EBDDF89881200010E236E81B40AD09C
:1001400081B608D0446A010E436EC4DF446A436A34
:10015000C1DF12D081B404D0446A040E436EBADF0A
:10016000446A436AB7DF81B604D0446A020E436E24
:10017000B1DF446A436AAEDF81BA07D0446A080E31
:10018000436EA8DF446A436AA5DF81B807D0446A9A
:10019000100E436E9FDF446A436A9CDF236AF0EFD0
:1001A00000F0D76A640ED66E22061F2E19D0050EF7
:1001B0001F6E1B2A1B50640810E11B6A1C2A1C506E
:1001C0003C080BE11C6A1D2A1D503C0806E11D6A13
:1001D0001E2A1E50180801E11E6A235201E1ACD705
:1001E000F29430EF00F0C150F00BC16E2F0E0F01F2
:1001F000386F000E3C6F396F3A6F3B6FC050C00BC9
:100200000709C06EC08EC280620ED36E9B9C9B9EFF
:10021000776A040E786E796E080E896E8A6A8B6A28
:100220008C6A8D6AAF0E926EFC0E936E000E946E09
:10023000956E9690969296949696010E616EF19EAA
:10024000C40ED56ED76A640ED66EF28ACD6ACC6AB9
:10025000196AF2BE198EF29EC80E476E000127DFA2
:1002600019BEF28EC2EF04F03850000807E2FF0A10
:1002700003E13750900802E2396839D0385203E17F
:100280003750DC0803E27F0E396E31D0385203E17B
:1002900037508C0803E23F0E396E29D0385203E103
:1002A0003750500803E21F0E396E21D0385203E157
:1002B0003750280803E20F0E396E19D0385203E187
:1002C0003750140803E2070E396E11D0385203E19B
:1002D00037500C0803E2030E396E09D0385203E19F
:1002E0003750080803E2010E396E01D0396A39C06F
:1002F00001F01200406A416A415003081CE3030EFA
:10030000D8804154426E3EC000F04250016E04E07D
:10031000D8900032012EFCD7000E00B0010E006E06
:100320004150016E04E0D8900036012EFCD70050F9
:100330004012412AE1D7403A3F3A416A415003080E
:1003400018E33FC000F04150016E04E0D890003245
:10035000012EFCD7000E00B0010E006E4150016E60
:1003600004E0D8900036012EFCD700504012412AFC
:10037000E5D7FF0E401A40C08CFF406A3E3A416A02
:10038000415003081CE3030ED8804154426E3EC026
:1003900000F04250016E04E0D8900032012EFCD7EC
:1003A000000E00B0010E006E4150016E04E0D890C6
:1003B0000036012EFCD700504012412AE1D7403AC6
:1003C0003F3A416A4150030818E33FC000F04150F2
:1003D000016E04E0D8900032012EFCD7000E00B070
:1003E000010E006E4150016E04E0D8900036012EDF
:1003F000FCD700504012412AE5D7FF0E401A40C0FA
:100400008BFF1200386A383C01D010D038C03EF063
:1004100038C03FF06FDF196AF2BE198EF29E190ED6
:10042000476E45DE19BEF28E382AEDD738C03EF051
:1004300038C03FF05FDF8D908D928D94020E396E43
:10044000196AF2BE198EF29EC80E476E30DE19BED2
:10045000F28E392EF5D78D808D828D8481EF04F058
:100460003E50016A3D5C03E23DC000F00CD0006AE2
:10047000080E3F6E3D3600363E50005CD8B0006E30
:1004800001363F2EF7D71200800E396E010E3A6EFC
:10049000020E3B6E8D808D828D84386A3850030841
:1004A00024E33A5039243C6E3A5039243D6E3CC026
:1004B0003EF03F6E1FDF39C03DF03BC03EF0D0DF65
:1004C00001503926D8903A34010F3A6ED8903B3417
:1004D000020F3B6E196AF2BE198EF29EFA0E476E3B
:1004E000E6DD19BEF28E382AD9D7386A38500208AC
:1004F0001AE38D908D928D94196AF2BE198EF29E38
:10050000960E476ED4DD19BEF28E8D808D828D845D
:10051000196AF2BE198EF29E960E476EC8DD19BE9C
:10052000F28E382AE3D7386A3850030819E3D89096
:100530003936D8903A323A5039243C6E3A50392400
:100540003D6E3CC03EF03F6ED5DE196AF2BE198E9C
:10055000F29EFA0E476EABDD19BEF28E382AE4D752
:1005600081EF04F0386A385001083FE38D908D82A6
:100570008D94010E396E3A6E386A3850070818E3C8
:1005800039C03EF03AC03FF0B5DE196AF2BE198EAE
:10059000F29EC80E476E8BDD19BEF28ED8903934AC
:1005A000010F396ED8903A34010F3A6E382AE5D7E8
:1005B0008D808D928D84386A3850070814E339C0D5
:1005C0003EF03AC03FF096DE196AF2BE198EF29EF6
:1005D000C80E476E6CDD19BEF28ED8903932D890B5
:1005E0003A32382AE9D7382ABED781EF04F0396A7F
:1005F0003950010832E3010E3A6E386A3850070864
:100600002AE33850010B11E13AC03EF03F6A72DE36
:100610008D908D828D84196AF2BE198EF29EC80E5D
:10062000476E45DD19BEF28E10D03E6A3AC03FF0EB
:1006300061DE8D808D828D94196AF2BE198EF29ED4
:10064000C80E476E34DD19BEF28ED8903A34010FD1
:100650003A6E382AD3D7392ACBD781EF04F0386ADB
:10066000385002082CE38D908D928D94AA0E396E2D
:10067000550E3A6E39C03EF03AC03FF03BDE196A83
:10068000F2BE198EF29EC80E476E11DD19BEF28EB3
:100690008D808D828D84550E396EAA0E3A6E39C0CA
:1006A0003EF03AC03FF026DE196AF2BE198EF29E85
:1006B000C80E476EFCDC19BEF28E382AD1D781EF06
:1006C00004F0396A3950010836E3C00E3A6E030E61
:1006D0003B6E386A385005082CE33850010B12E1A4
:1006E0003AC03EF03BC03FF005DE8D908D928D9478
:1006F000196AF2BE198EF29EC80E476ED8DC19BE7A
:10070000F28E11D03BC03EF03AC03FF0F3DD8D8059
:100710008D828D84196AF2BE198EF29EC80E476EC4
:10072000C6DC19BEF28ED8903A32D8903B36382AC1
:10073000D1D7392AC7D781EF04F0010E3A6E800E67
:100740003B6E020E3C6E8D808D928D84396A3950DD
:10075000010855E3010E3A6E800E3B6E020E3C6EB0
:10076000386A3850070827E3395206E13AC03EF0AC
:100770003BC03FF0BFDD05D03BC03EF03AC03FF08C
:10078000B9DD3BC03DF03CC03EF06ADE01503B2687
:10079000D8903A34010F3A6ED8903C34020F3C6E38
:1007A000196AF2BE198EF29EFA0E476E80DC19BEEF
:1007B000F28E382AD6D73A683B68386A385007082C
:1007C0001CE3395206E13AC03EF03BC03FF092DDF7
:1007D00005D03BC03EF03AC03FF08CDDD8903B32B4
:1007E000D8903A36196AF2BE198EF29EFA0E476E0A
:1007F0005EDC19BEF28E382AE1D7392AA8D781EFFC
:1008000004F08D908D928D94010E396E3A6A386A9B
:100810003850070812E339C03EF03AC03FF06ADDB5
:10082000196AF2BE198EF29E640E476E40DC19BE44
:10083000F28ED8903936382AEBD7800E3A6E386A65
:100840003850080812E339C03EF03AC03FF052DD9C
:10085000196AF2BE198EF29E640E476E28DC19BE2C
:10086000F28ED8903A32382AEBD78D808D828D84E3
:10087000020E3B6E196AF2BE198EF29EFA0E476E98
:1008800016DC19BEF28E3B2EF5D7386A38500208B6
:1008900021E33E683F682EDD8D908D928D94196A1C
:1008A000F2BE198EF29E640E476E01DC19BEF28E06
:1008B0003E6A3F6A1FDD8D808D828D84196AF2BE8B
:1008C000198EF29E640E476E57EC00F019BEF28E40
:1008D000382ADCD781EF04F03750F80F12E2080F06
:1008E00083EF04F08FD50DD0CFD50BD03BD609D0F8
:1008F0007ED607D0B4D605D0E4D603D01ED701D01B
:1009000080D7A7EF05F0E824F76AF736210FF66ED7
:10091000090EF7220A00F550FA6E0800F550F96E3C
:10092000E408E808EC08F008F408F808FC080009F6
:10093000F86AD09E078EEA6AE96A600ED36E9B9CC5
:100940009B9E1A901B6A1C6A1D6A1E6A050E1F6E0A
:10095000206A216A226A236A256A246AC150F00B40
:10096000C16E000E0F01386F3C6F396F3A6F3B6FED
:100970000101886B776A786A796A346A356A366AFF
:10098000000131D4C00EF212000E016EC250830B72
:100990000110C26E196AF2BE198EF29E010E476EE8
:1009A00057EC00F019BEF28EC282C2B2FED7C3CF9E
:1009B00035F0040E016EC250830B0110C26E196A2D
:1009C000F2BE198EF29E010E476E57EC00F019BE72
:1009D000F28EC282C2B2FED7C3CF34F0000E016ED7
:1009E000C250830B0110C26E196AF2BE198EF29EBC
:1009F000010E476E57EC00F019BEF28EC282C2B2F1
:100A0000FED7C3CF33F0040E016EC250830B01102A
:100A1000C26E196AF2BE198EF29E010E476E57EC35
:100A200000F019BEF28EC282C2B2FED7C3CF32F03E
:100A300033503524006ED8900030356E3250342457
:100A4000006ED8900030346E345035240208D8B08F
:100A50007BD0386A33C037F007DC01C031F0386A28
:100A600032C037F001DC01C030F031C03EF030C0A0
:100A70003FF040DC080E016EC250830B0110C26EC5
:100A8000196AF2BE198EF29E010E476E57EC00F005
:100A900019BEF28EC282C2B2FED7C4CF03F0C3CF5A
:100AA00037F0C450386E010807E2FF0A03E13750FF
:100AB000300802E28D9001D08D800C0E016EC25084
:100AC000830B0110C26E196AF2BE198EF29E010EDE
:100AD000476E57EC00F019BEF28EC282C2B2FED74A
:100AE000C4CF03F0C3CF37F0C450386E010807E21B
:100AF000FF0A03E137503A0802E28D9201D08D825D
:100B0000100E016EC250830B0110C26E196AF2BE44
:100B1000198EF29E010E476E57EC00F019BEF28E50
:100B2000C282C2B2FED7C4CF03F0C3CF37F0C450E5
:100B3000386E010807E2FF0A03E13750260802E297
:100B40008D9401D08D8408D036C037F0C5D6362AB2
:0C0B50003650080801E1366A41D7030066
:020000040030CA
:0E00000000E8183C003D81000FC00FE00F40EB
:00000001FF
;PIC18F45K22
;CRC=8EFE  CREATED="12-Apr-13 12:19"
