:0400000010EF02F00B
:08000800046ED8CF05F0E0CF33
:1000100006F00001E9CF0CF0EACF07F0E1CF08F0DD
:10002000E2CF09F0D9CF0AF0DACF0BF0F3CF12F01C
:10003000F4CF13F0FACF14F0F5CF15F0F6CF16F099
:10004000F7CF17F000C00EF001C00FF002C010F0A3
:1000500003C011F0F2AA30EF00F0F2B457EF00F055
:100060000EC000F00FC001F010C002F011C003F08C
:100070000CC0E9FF07C0EAFF078E08C0E1FF09C016
:10008000E2FF0AC0D9FF0BC0DAFF12C0F3FF13C0B2
:10009000F4FF14C0FAFF15C0F5FF16C0F6FF17C035
:1000A000F7FF045006C0E0FF05C0D8FF1000D76A74
:1000B000640ED66E21061E2E16D0050E1E6E1A2A4E
:1000C0001A50640810E11A6A1B2A1B503C080BE105
:1000D0001B6A1C2A1C503C0806E11C6A1D2A1D5084
:1000E000180801E11D6AF29430EF00F0EA6A340E5C
:1000F000E96EEF500DE0020E016E006A002EFED791
:10010000012EFBD7970E006E002EFED7EF2EF3D7F1
:10011000000CC150F00BC16E2F0E0F01386F000E96
:100120003C6F396F3A6F3B6FC050C00B0709C06E10
:10013000C08EC280620ED36ED350040E786E796E7C
:10014000080E896E8A6A8B6A8C6A8D6AAF0E926E0F
:10015000FC0E936E000E946E956E96909692969409
:100160009696010E7C6EF19EC40ED56ED76A640E13
:10017000D66EF28ACD6ACC6AC80E346E0001B6DF44
:1001800036EF02F03350000808E2FF0A03E1325074
:10019000900803E2FF0E346E39D0335203E132503F
:1001A000DC0803E27F0E346E31D0335203E132506B
:1001B0008C0803E23F0E346E29D0335203E13250F3
:1001C000500803E21F0E346E21D0335203E1325047
:1001D000280803E20F0E346E19D0335203E1325077
:1001E000140803E2070E346E11D0335203E132508B
:1001F0000C0803E2030E346E09D0335203E132508F
:10020000080803E2010E346E01D0346A34C001F0F4
:10021000000C356A366A365003081CE3030ED8809A
:100220003654376E33C000F03750016E04E0D8907A
:100230000032012EFCD7000E00B0010E006E3650C9
:10024000016E04E0D8900036012EFCD70050351224
:10025000362AE1D7353A343A366A3650030818E37D
:1002600034C000F03650016E04E0D8900032012E08
:10027000FCD7000E00B0010E006E3650016E04E097
:10028000D8900036012EFCD700503512362AE5D71B
:10029000FF0E351A35C08CFF356A333A366A365050
:1002A00003081CE3030ED8803654376E33C000F0C9
:1002B0003750016E04E0D8900032012EFCD7000EBA
:1002C00000B0010E006E3650016E04E0D89000368A
:1002D000012EFCD700503512362AE1D7353A343A90
:1002E000366A3650030818E334C000F03650016E09
:1002F00004E0D8900032012EFCD7000E00B0010EB1
:10030000006E3650016E04E0D8900036012EFCD706
:1003100000503512362AE5D7FF0E351A35C08BFF4F
:10032000000C8D908D928D94010E316E326A306A80
:10033000305007080CE331C033F032C034F069DFCD
:10034000640E346ED3DED8903136302AF1D7800E69
:10035000326E306A305007080CE331C033F032C0DF
:1003600034F057DF640E346EC1DED8903232302A5A
:10037000F1D78D808D828D84020E336EFA0E346E2D
:10038000B5DE332EFBD7306A3050020815E3FF0E7E
:10039000336E346E3EDF8D908D928D94640E346E8C
:1003A000A5DE336A346A35DF8D808D828D84640EDC
:1003B000346E9CDE302AE8D7C9EF02F08A90899823
:1003C000010E346E93DE100E326E325223E0010EB7
:1003D000325C336E8A90010E346E88DE010E006E40
:1003E0003350016E04E0D8900036012EFCD7005047
:1003F0003014006E036A0050031002E08A8201D0BC
:100400008A92010E346E72DE8A80010E346E6EDEC8
:100410003206DBD78A820A0E346E68DE8988000CC9
:10042000F86AD09E078EEA6AE96A600ED36ED350EE
:1004300019901A6A1B6A1C6A1D6A050E1E6E1F6AD5
:10044000206A216A236A226AC150F00BC16E000E35
:100450000F01386F000E3C6F000E396F000E3A6FBF
:10046000000E3B6F786A796A000153D6C00EF21213
:10047000000E016EC250C30B0110C26E010E346E2D
:1004800035DEC282C2B2FED7C4CF03F0C3CF30F094
:10049000C4CF31F0C4CF33F0C3CF32F073DE01C02C
:1004A0002FF0040E016EC250C30B0110C26E010E7C
:1004B000346E1CDEC282C2B2FED7C4CF03F0C3CFFB
:1004C00030F0C4CF31F0C4CF33F0C3CF32F05ADEB6
:1004D00001C02EF02F502E2401085AE22FC033F015
:1004E0002EC034F096DE080E016EC250C30B011010
:1004F000C26E010E346EFADDC282C2B2FED7C4CF24
:1005000003F0C3CF30F0C450316E010807E2FF0A98
:1005100003E13050300802E28D9001D08D800C0E46
:10052000016EC250C30B0110C26E010E346EDEDDCF
:10053000C282C2B2FED7C4CF03F0C3CF30F0C450E2
:10054000316E010807E2FF0A03E130503A0802E287
:100550008D9201D08D82100E016EC250C30B01101E
:10056000C26E010E346EC2DDC282C2B2FED7C4CFEB
:1005700003F0C3CF30F0C450316E010807E2FF0A28
:1005800003E13050260802E28D9401D08D8401D021
:10059000C8D681B404D0316A040E306E0FDF81B644
:1005A00004D0316A020E306E09DF81BA04D0316A9C
:1005B000080E306E03DF81B804D0316A100E306E41
:0C05C000FDDE316A306AFADE53D703001A
:020000040030CA
:0E00000000E8183C003D81000FC00FE00F40EB
:00000001FF
;PIC18F45K22
;CRC=3E92  CREATED="19-Okt-12 10:23"
